:1000000000000420BD020000E5020000E70200003D
:10001000E9020000EB020000ED0200000000000019
:10002000000000000000000000000000EF020000DF
:10003000F102000000000000F3020000F5020000E1
:10004000F7020000F702000099070000F702000025
:10005000F7020000F7020000F7020000F7020000BC
:10006000F7020000F7020000F7020000F7020000AC
:10007000F7020000F7020000F7020000F70200009C
:10008000F7020000F7020000F7020000F70200008C
:10009000F7020000F7020000F7020000F70200007C
:1000A000F7020000F7020000F7020000F70200006C
:1000B000F7020000F702000000000000000000004E
:1000C000F7020000F7020000F7020000F70200004C
:1000D000F7020000F7020000F7020000F70200003C
:1000E000F7020000F7020000F70200000000000025
:1000F00000000000F702000000000000F70200000E
:1001000000000000000000000000000000000000EF
:1001100000000000000000000000000000000000DF
:1001200000000000000000000000000000000000CF
:1001300000000000000000000000000000000000BF
:1001400000000000000000000000000000000000AF
:10015000000000000000000000000000000000009F
:10016000000000000000000000000000000000008F
:10017000000000000000000000000000000000007F
:10018000000000000000000000000000000000006F
:10019000000000000000000000000000000000005F
:1001A000000000000000000000000000000000004F
:1001B000000000000000000000000000000000003F
:1001C000000000000000000000000000000000002F
:1001D000000000000000000000000000000000001F
:1001E000000000000000000000000000000000000F
:1001F00000000000000000000000000000000000FF
:1002000010B5054C237833B9044B13B10448AFF350
:1002100000800123237010BD80000020000000003A
:100220005C17000008B5034B1BB103490348AFF34B
:10023000008008BD00000000840000205C17000062
:10024000A3F5803A704700BF174B002B08BF134B34
:100250009D46FFF7F5FF00218B460F461348144AD1
:10026000121A01F03BFA0E4B002B00D098470D4BB1
:10027000002B00D098470020002104000D000D48FD
:10028000002802D00C48AFF3008001F003FA2000F0
:10029000290001F07FF801F0E9F900BF0000080033
:1002A000000000000000000000000420800000208A
:1002B0004403002000000000000000000649074A37
:1002C000074B9B1A03DD043BC858D050FBDC01F000
:1002D0009FF8FFF7B9FF000068170000000000203A
:1002E00080000020FEE7FEE7FEE7FEE7FEE7FEE710
:1002F000FEE7FEE7FEE7FEE7C10706D4830742BF3D
:10030000114B0C22C3F8002770474FF0A043032283
:1003100010B44FF40001C3F858274FF48004C3F819
:100320005C27C3F860274FF08072C3F80845C3F814
:100330000815C3F80825820703D5034B0C22C3F820
:1003400000275DF8044B70470003005000B585B0EE
:100350000346002101AA44F20100CDE901110393F3
:1003600000F004F805B05DF804FB00BF72B6094B5D
:10037000D3F8F030DB0700D500BEBFF34F8F05493F
:10038000054BCA6802F4E0621343CB60BFF34F8FA2
:1003900000BFFDE700ED00E00400FA0559B142B1ED
:1003A000531E1A4005D1826001608380C2601046EE
:1003B0007047092070470E20704700BF10B4846852
:1003C000C26803468088121B904203D204205DF865
:1003D000044B7047DC681A6820401154DA68013217
:1003E000DA6000205DF8044B704700BF0346806868
:1003F000DA6890420DD010B49C689A881868224040
:10040000825C0A709A6801329A6000205DF8044BA1
:1004100070470520704700BF30B50478012C83B0C9
:1004200004D0022C2DD0ECB103B030BD037A002BE8
:100430003CD04368364D19782846FFF7BFFF0028A7
:1004400055D0344B01901B688DF8004068469847A2
:10045000A968EB68AA885B1A9A4227D22E4B012220
:100460001A70E1E72D492E48FFF7C0FF00282DD074
:10047000284B03221B688DF800206846984703B07C
:1004800030BD284B284D1A78C168AA5C01918DF8BF
:1004900000402649AAB9012203F10C0000F0F6FB46
:1004A0001C4B68461B68984703B030BD1D4B1E4A65
:1004B0001B781E49D35C0122ABB11D4800F0C4FE7D
:1004C000B2E70122181D00F0BFFEE9E71548164A01
:1004D00003781249D35C0122A3B1043003B0BDE814
:1004E000304000F04BBE134800F0D0FB9CE7AA68F8
:1004F000EB689A42ACD0074B8DF800001B68684649
:100500009847A5E70C3003B0BDE8304000F046BB8B
:10051000A00000209C000020B0000020C8000020A7
:10052000B400002000000020E0000020C4000020F3
:10053000040000200C0000202DE9F0412F4E88B06F
:100540003260002951D08A8804460E462C4809683A
:100550001D46FFF723FF10B108B0BDE8F081B28956
:10056000B1682848FFF71AFF0028F5D194F810E089
:10057000637C254E254FBEF1000E18BF4FF0010ED3
:10058000002B0FCEEC46ACE80F00636800932368A5
:100590000193E3680293A368039396E80F0018BFE2
:1005A0004FF00E088CE80F0008BF4FF00008636999
:1005B000174A0693694638468DF814E08DF81C50AA
:1005C0008DF8158000F0ACF80028C5D12368114AD9
:1005D00001331070C0D0104A3B781049D35C01221F
:1005E0003BB1381D00F030FEB6E7072008B0BDE88B
:1005F000F08107F10C0000F049FBADE79C00002002
:10060000A0000020B4000020081700000000002017
:1006100019040000B0000020E0000020C400002009
:1006200070B501461548FFF7C9FE044608B12046DB
:1006300070BD134D134E2B78F35CA3B1281D00F051
:10064000F5FD0028F3D110490C48FFF7CFFE002834
:10065000EDD12B780C49F35C53B1BDE870400B48E9
:10066000012200F08BBD05F10C0000F003FBE8E770
:10067000BDE870400648012200F090BAB4000020A6
:1006800000000020E0000020C8000020040000203E
:100690000C00002072B6024A1368013313607047E1
:1006A000CC000020034A1368013B136003B962B613
:1006B000704700BFCC00002030B50A4B0A4C53F8FD
:1006C000213054F82110027885B0D0E901548DF81A
:1006D0000020C26801958DF808400392684698474B
:1006E00005B030BDD8000020D000002030B50A4B46
:1006F0000A4C53F8213054F82110027885B0D0E923
:1007000001548DF80020C26801958DF808400392CD
:100710006846984705B030BDD8000020D0000020C2
:10072000F0B5184B067843F82620174B0446487F4F
:1007300098551546154A8E46096942F826102278C2
:100740009F5CBEE80F0089B0EC46ACE80F009EE865
:100750000F008CE80F0004964FB1002D0C4A69463B
:1007600008BF2A46201D00F0FBFB09B0F0BD002D9C
:10077000084A694608BF2A4604F10C0000F018F93F
:1007800009B0F0BDD8000020E0000020D00000201B
:10079000B9060000ED060000014B1B68184700BFBA
:1007A000E400002038B50C4B984213D100200D46D0
:1007B000FFF770FF094B1C7924B10020FFF772FF8F
:1007C000112038BD012220461D601A71FFF76AFF13
:1007D000204638BD002038BD00200040E400002045
:1007E00010B5714AD2F8043399058AB068D5D2F8A9
:1007F0002431002B64D00023C2F82431D2F82431F4
:1008000001934FF40171694B0198C2F8081393F8F2
:10081000291009B901215160634902228DF818207D
:10082000D1F88024C1F880249FED5D7B9969D86858
:10083000CDE9081283ED067BD3E90012079006A8E4
:100840009047594AD2F81C31C3B1584B5869196ABC
:1008500088426AD993F8281001F0FF00002964D17A
:10086000C2F81C01D2F81C11039103999C68186A04
:10087000196A205C01311962C2F81C054A4AD2F893
:100880004431DBB10021494BC2F84411D2F8440194
:1008900093F829100090009809B1012111609A691C
:1008A00062B1D8685C6A00210122CDE90704996130
:1008B0008DF8182006A8D3E9001290470AB010BDA1
:1008C000394AD2F804335B07BBD5D2F80831002B84
:1008D000B7D0364B996900293ED00021C2F80811E3
:1008E000D2F8081104910499D868596AD2F81825E9
:1008F00042545A6A996901325A625A6A8A42A0D1AC
:10090000DA69002A31D09A611A69D8685C6ADA60BB
:10091000002101220894D961596207905C68196826
:100920008DF8182006A8A0478BE71F4A0020C2F8C0
:100930001C01D2F81C210292029A5A69002A9DD009
:10094000D3E901215C698DF81800CDE907145861DD
:10095000196806A8904791E7C2F80811D2F8080173
:1009600005900598D2F81825C7E793F8292012B901
:100970000D4A012151600C4A4FF40171C2F808136D
:10098000D8685C6A0021012299618DF81820D3E9AA
:100990000012CDE9070406A8904752E7AFF30080A4
:1009A000000000000000000000200040F0000020D7
:1009B0002DE9F041734E90F804802C2303FB08636B
:1009C00082B093F82A30002B40F09C8005460C46FC
:1009D00000686D491746FFF7E5FE002840F08E805D
:1009E0002368591C19D01F2B4FF001028ABF674999
:1009F0004FF0A04103F01F0302FA03F3C1F80835DA
:100A000023681F2B86BF03F01F03604A4FF0A042EC
:100A100003F5E073032142F8231063685A1C0BD0DE
:100A20001F2B86BF03F01F03584A4FF0A04203F567
:100A3000E073002142F823102B68A269C3F8242533
:100A4000227D637D13432A68C2F86C35D4E9001215
:100A50002B68C3F81425C3F80C15237D012B5CD03B
:100A60002C2303FB08F3F21857602269F25097B366
:100A70002A68237F0021C2F81C11D2F81C210092A1
:100A8000009A2A68C2F84411D2F844210192019ACE
:100A90002A683F49C2F804132A6842F30731002943
:100AA0004FEA123232DB01F160415B0101F5614135
:100AB000DBB281F800332B6843F30732002A4FEA98
:100AC000133109DB334C5209012301F01F0103FAF2
:100AD00001F144F822102B680422C3F800252C23CE
:100AE00003FB086601220023C6E9063386F8293095
:100AF000736186F82A2002B0BDE8F081112002B0AF
:100B0000BDE8F081082002B0BDE8F081224902F082
:100B10000F025B01DBB28B54CDE7A368591C0BD0ED
:100B20001F2B86BF03F01F0318494FF0A04103F5A8
:100B3000E073002241F82320E3685A1C1AD01F2BCF
:100B40008ABF12494FF0A04103F01F03012202FAAD
:100B500003F3C1F80835E3681F2B88BF03F01F03B8
:100B600003F5E0738CBF09494FF0A041032241F81F
:100B70002320E3682A68A168C2F80835C2F8101576
:100B80006EE700BFF0000020E10700000003005006
:100B90008000020000E100E014ED00E02DE9F041EA
:100BA000334C90F804E02C2303FB0E438446586931
:100BB00084B000284ED15A619960186283F82800E9
:100BC000DCF80020C2F81C01D2F81C210292029A23
:100BD000DCF8002001219160DCF800209D68C2F85B
:100BE0001C01D2F81C1101910199196A6E5C196AF5
:100BF00001311962C2F81C655A6812B104B0BDE82F
:100C0000F0815E691A6ADCF8001096421BD907462B
:100C100002E093F828200ABBD1F81C21002AF8D062
:100C2000C1F81C71D1F81C210392039A1A6A15F8B5
:100C300002801A6A01321A62C1F81C851A6A964249
:100C4000EAD8DCF80010D1F81C31002BFBD00123CE
:100C5000CB6004E0112004B0BDE8F0810F202C230C
:100C600003FB0E440023636104B0BDE8F08100BFC4
:100C7000F00000200279044B2C2101FB023358695B
:100C8000003818BF01207047F000002030B5554DE6
:100C900090F804E02C2303FB0E5387B05C68844675
:100CA00024B103684FF40170C3F808032C2303FB3D
:100CB0000E53986998B1D869002840F08380196173
:100CC000DA612C2202FB0E52536853B3DCF8003079
:100CD0004FF40172C3F80423002007B030BD9A61BD
:100CE000D9605862D86193F82930002BE9D1DCF83B
:100CF0000020C2F82431D2F824210192DCF800202F
:100D00000199C2F80831D2F808310293DCF80030BA
:100D1000029901221A602C2202FB0E525368002B0A
:100D2000D4D1DCF80010C1F84431D1F84431039338
:100D3000039BDCF80030D3F82411D3F80841D3F832
:100D4000440154B9002834D10029F4D02C2303FBEA
:100D50000E550023AB610320BFE70029F6D150BB3D
:100D60009169C3F8080181B1D3F80811049104997D
:100D7000D468516AD3F818356354536A91690133C2
:100D80005362536A9942D4D806E0D3F8081105910A
:100D90000599D3F81835536A2C2303FB0E5500220E
:100DA00095F82930AA61B3B1DCF8003001221A604D
:100DB00093E70029CAD12C2303FB0E550023AB6116
:100DC0000F208AE764B1DCF800304FF40172C3F8F9
:100DD0000423112081E7DCF8003001225A607CE70F
:100DE00011207AE7F000002010B55B4BD3F82421E6
:100DF0008AB0002A58D00022C3F82421D3F8241145
:100E0000049102228DF818200499544AD3F88014D2
:100E1000C3F880149FED4E7B0991D3F83C45D06810
:100E200082ED067BCDE90704D2E9001306A89847B6
:100E3000494BD3F8442152B10021484AC3F8441128
:100E4000D3F84401916903900398002961D1424B82
:100E5000D3F8202162B10020C3F82001D3F820216B
:100E6000029201213D4A029CD9605169002943D177
:100E7000394BD3F85821AAB10020C3F85801D3F850
:100E80005811364A01910199516959B1D3F84C452D
:100E90008DF81800D2E901315061CDE9071406A898
:100EA000116898470AB010BDD3F810110029BFD0BF
:100EB000C3F81021D3F81011284C05910599A169A8
:100EC000D3F83C058842B3D1E169002933D0C4E9A5
:100ED0000612D3F8002222F02002C3F80022E268B2
:100EE0000792012122698DF8181008906368216823
:100EF000E26006A898479BE7D3F84C458DF81800A8
:100F0000D2E901315061CDE9071406A8116898476C
:100F1000AEE79FED0F7BD3F83C45D0684FF0010C56
:100F2000CDE9070482ED067BD2E900138DF818C0E5
:100F300006A898478BE7E268A1610123CDE9072065
:100F40008DF8183006A8D4E90013984770E700BF61
:100F500000000000000000000020004020010020F0
:100F60002DE9F04307797F4E07EBC70306EB8303B8
:100F700087B093F82030002B40F0B58004460D4632
:100F8000006879499046FFF70DFC002840F0A780E3
:100F90002B68591C4FEAC70919D01F2B4FF00102CB
:100FA0008ABF72494FF0A04103F01F0302FA03F316
:100FB000C1F808352B681F2B86BF03F01F036B4A4F
:100FC0004FF0A04203F5E073032142F823106B6851
:100FD0005A1C0BD01F2B86BF03F01F03634A4FF030
:100FE000A04203F5E073002142F823102368AA69A8
:100FF000C3F824252B7D6A7D1A432368C3F86C252A
:10100000D5E900312268C2F80C35C2F814152B7DE1
:10101000012B73D009EB070206EB8203C3F80480AF
:101020002B6946F82230B8F1000F47D021682B7F9A
:101030000022C1F81021D1F8101101910199216805
:10104000C1F82021D1F82011029102992168C1F83C
:101050002421D1F82411039103992168C1F8442176
:10106000D1F84411049104992168C1F85821D1F8AC
:1010700058210592059A22683D49C2F80413226856
:1010800042F3073100294FEA123230DB01F16041AF
:101090005B0101F56141DBB281F80033226842F364
:1010A0000733002B4FEA123109DB324D5B09012275
:1010B00001F01F0102FA01F145F8231022684F44A4
:1010C00006EB87060121002386F820100821C2F8CC
:1010D0000015C6E90633736107B0BDE8F08311203F
:1010E00007B0BDE8F083082007B0BDE8F0832249CF
:1010F00002F00F025B01DBB28B54CFE7AB68591CE7
:101100000BD01F2B86BF03F01F0318494FF0A041DF
:1011100003F5E073002241F82320EB685A1C1AD033
:101120001F2B8ABF11494FF0A04103F01F0301227A
:1011300002FA03F3C1F80835EB681F2B88BF03F0F0
:101140001F0303F5E0738CBF08494FF0A041032251
:1011500041F82320EB682268A968C2F80835C2F874
:10116000101557E720010020E90D00000003005092
:101170001003420000E100E014ED00E001F0604CDB
:10118000BCF1005F30D170B590F804E0264C0EEB56
:10119000CE0C04EB8C0C0346DCF8140082B04FEA52
:1011A000CE0500283BD1CCF81420CCF808101A68E2
:1011B000C2F82001D2F820210192019A1A68C2F8DF
:1011C0005801D2F858210092009A1A68DCF814608D
:1011D000C2F84415C2F848651A6801219160DCF82C
:1011E00004201AB102B070BD102070471A6800E0E8
:1011F000C0B9D2F82011D2F858010029F8D088B926
:101200000121D1601B68D3F85821002AFBD005EBDF
:101210000E0304EB830300225A6102B070BD11205B
:1012200002B070BD0F20F2E7200100200379054ACB
:1012300003EBC30302EB83035869003818BF012096
:10124000704700BF2001002001F06043B3F1005F50
:1012500062D1F0B490F804C0484C0CEBCC0304EB22
:10126000830382B05E684FEACC0326B105684FF471
:101270000477C5F80873634404EB83039D695DBB81
:101280009A61DD61D9600368C3F81051D3F8103159
:101290000193019B0368C3F84451D3F84431009390
:1012A0000368009DC3F83415C3F83825036801228C
:1012B0001A6090F804C00CEBCC0304EB83034FEAF4
:1012C000CC055B6853B303684FF40472C3F804237E
:1012D000002002B0F0BC7047DD69002D37D11961E4
:1012E000DA610368C3F81051D3F810310193019B00
:1012F0000368C3F84451D3F8443100930368009D58
:10130000C3F83415C3F838250268D2F8003243F028
:101310002003C2F80032CCE710207047036801E0D8
:10132000E9B910BBD3F81021D3F84411D3F8240144
:10133000002AF5D0654400284FF0000304EB850433
:1013400018BF03209942A36118BF0F20C1E796B1CF
:1013500003684FF40472C3F804231120B9E765440D
:1013600004EB85040F20A261B3E7654404EB850418
:101370000320A161ADE71120ABE700BF20010020F1
:101380000378022B02D0012B00D070474068FEF793
:10139000DDBF00BF30B5194D8BB00120FEF7ACFFAB
:1013A0000FCD04AC0FC495E8030084E80300144893
:1013B000144B00934FF48075CDE90150124A039508
:1013C0000723694604A8FFF7B7F898B90F4D6424BE
:1013D00045F001054FF47A40A847013CFAD153206B
:1013E000FFF71EF941F288344FF47A40A847013CD8
:1013F000FAD1F4E7FEF7AAFFE8E700BF28170000DC
:101400004402002044010020811300004017000026
:1014100010B44FF08053D3F83021082A23D0844AE7
:10142000D2F8883043F47003C2F88830BFF34F8F8E
:10143000BFF36F8F4FF08053D3F83021082A00F0AC
:10144000B3804FF01023D3F80022002AC0F2BF80EF
:10145000D3F80432002BC0F2BA80764B764A1A6079
:101460005DF8044B70474FF080410020C1F80C013B
:10147000724AC1F81001C1F83805D3F80414C2F853
:101480002015D3F80814C2F82415D3F80C14C2F8A8
:101490002815D3F81014C2F82C15D3F81414C2F878
:1014A0003015D3F81814C2F83415D3F81C14C2F848
:1014B0004015D3F82014C2F84415D3F82414C2F808
:1014C0004815D3F82814C2F84C15D3F82C14C2F8D8
:1014D0005015D3F83014C2F85415D3F83414C2F8A8
:1014E0006015D3F83814C2F86415D3F83C14C2F868
:1014F0006815D3F84014C2F86C15D3F83411D3F83A
:101500004434C2F87035052942D84D4B5B5C1BB1A1
:101510004C4B4D4AC3F88C264C4B5B5C73B14FF07F
:1015200080534B49D3F83021FB20C1F81805082A15
:10153000D3F834117FF473AF052929D8454B5B5C90
:10154000BBB14FF080524FF08040D2F85832D0F803
:10155000E41ED2F8304121F00F0103F00F030B43DA
:10156000C0F8E43E082CD2F834117FF458AF0529B6
:101570000ED8394B5B5C5BB14FF08053374AD3F8E0
:1015800030314FF40071082BC2F840167FF447AF9A
:101590004FF08043D3F80024D2077FF540AF6FF0BF
:1015A0000102C3F800243AE7D3F83431052B08D9F7
:1015B0004FF010224FF08043D2F80822C3F858258C
:1015C0003FE7274AD35C002B3FF43BAFF0E7254AC7
:1015D0000123C2F80435D2F80034002BFBD04FF0C1
:1015E000102312211F4AC3F80012D2F80034002B36
:1015F000FBD04FF0102312211A4AC3F80412D2F87C
:101600000034002BFBD000231649C2F80435D1F872
:101610000034002BFBD0BFF34F8F0549124BCA6833
:1016200002F4E0621343CB60BFF34F8F00BFFDE7CE
:1016300000ED00E0140000200090D00300C0004046
:101640005017000000500040488103005017000070
:1016500000F00040501700005017000000900240BA
:101660004817000000E001400400FA0508B5074BE8
:10167000044613B10021AFF30080054B1868836A5C
:1016800003B19847204600F031F800BF0000000089
:101690005817000070B50D4D0D4C641BA4100026AA
:1016A000A64209D10B4D0C4C00F022F8641BA4108B
:1016B0000026A64205D170BD55F8043B9847013677
:1016C000EEE755F8043B98470136F2E77800002032
:1016D00078000020780000207C00002002440346AF
:1016E000934200D1704703F8011BF9E7FEE700BF02
:1016F000F8B500BFF8BC08BC9E467047F8B500BFFF
:10170000F8BC08BC9E467047FFFFFFFFFFFFFFFFCE
:10171000FFFFFFFFFFFFFFFF0000000000000000D1
:101720000000D601060100001300000014000000B4
:10173000FFFFFFFFFFFFFFFF010100000000D601D8
:101740000338FDD8704700000000000001010000D0
:101750000100000000000000180000200000000050
:08176000E0EAFF7F0100000038
:1017680000000000002000400000000000200040B1
:10177800000000000090D0030000000000000000FE
:101788000000000000000000000000000000000051
:101798000000000000000000000000000000000041
:1017A8000000000000000000000000000000000031
:1017B8000000000000000000000000000000000021
:1017C8000000000000000000000000000000000011
:1017D80000000000000000002502000001020000D7
:04000003000002BD3A
:00000001FF
