:1000000000000420BD020000E5020000E70200003D
:10001000E9020000EB020000ED0200000000000019
:10002000000000000000000000000000EF020000DF
:10003000F102000000000000F3020000F5020000E1
:10004000F7020000F7020000F9020000F7020000CA
:10005000F7020000F7020000F7020000F7020000BC
:10006000F7020000F7020000F7020000F7020000AC
:10007000F7020000F7020000F7020000F70200009C
:10008000F7020000F7020000F7020000F70200008C
:10009000F7020000F7020000F7020000F70200007C
:1000A000F7020000F7020000F7020000F70200006C
:1000B000F7020000F702000000000000000000004E
:1000C000F7020000F7020000F7020000F70200004C
:1000D000F7020000F7020000F7020000F70200003C
:1000E000F7020000F7020000F70200000000000025
:1000F00000000000F702000000000000F70200000E
:1001000000000000000000000000000000000000EF
:1001100000000000000000000000000000000000DF
:1001200000000000000000000000000000000000CF
:1001300000000000000000000000000000000000BF
:1001400000000000000000000000000000000000AF
:10015000000000000000000000000000000000009F
:10016000000000000000000000000000000000008F
:10017000000000000000000000000000000000007F
:10018000000000000000000000000000000000006F
:10019000000000000000000000000000000000005F
:1001A000000000000000000000000000000000004F
:1001B000000000000000000000000000000000003F
:1001C000000000000000000000000000000000002F
:1001D000000000000000000000000000000000001F
:1001E000000000000000000000000000000000000F
:1001F00000000000000000000000000000000000FF
:1002000010B5054C237833B9044B13B10448AFF350
:1002100000800123237010BD6C000020000000004E
:100220008C06000008B5034B1BB103490348AFF32C
:10023000008008BD00000000700000208C06000057
:10024000A3F5803A704700BF174B002B08BF134B34
:100250009D46FFF7F5FF00218B460F461348144AD1
:10026000121A00F0EBF90E4B002B00D098470D4B03
:10027000002B00D098470020002104000D000D48FD
:10028000002802D00C48AFF3008000F0B3F9200042
:10029000290000F037F800F099F900BF00000800CD
:1002A0000000000000000000000004206C0000209E
:1002B0009000002000000000000000000649074AEE
:1002C000074B9B1A03DD043BC858D050FBDC00F001
:1002D0004FF8FFF7B9FF000098060000000000206B
:1002E0006C000020FEE7FEE7FEE7FEE7FEE7FEE724
:1002F000FEE7FEE7FEE7FEE7014B1B68184700BF7D
:10030000880000204FF0A0422DE9F0410220154D59
:10031000C2F850074FF0FF331422134EC5F80C25D6
:100320001249C5F808350422C5F810350123C5F86F
:10033000241546F00106C5F800254FF05308AB60C0
:100340000027C5F81C85D5F81C31002BFBD0C5F85B
:100350001C7141F288344FF47A40B047013CFAD125
:10036000EFE700BF002000407006000000E0D7016A
:1003700010B44FF08053D3F83021082A23D0844A98
:10038000D2F8883043F47003C2F88830BFF34F8F3F
:10039000BFF36F8F4FF08053D3F83021082A00F05D
:1003A000B3804FF01023D3F80022002AC0F2BF80A0
:1003B000D3F80432002BC0F2BA80764B764A1A602A
:1003C0005DF8044B70474FF080410020C1F80C01EC
:1003D000724AC1F81001C1F83805D3F80414C2F804
:1003E0002015D3F80814C2F82415D3F80C14C2F859
:1003F0002815D3F81014C2F82C15D3F81414C2F829
:100400003015D3F81814C2F83415D3F81C14C2F8F8
:100410004015D3F82014C2F84415D3F82414C2F8B8
:100420004815D3F82814C2F84C15D3F82C14C2F888
:100430005015D3F83014C2F85415D3F83414C2F858
:100440006015D3F83814C2F86415D3F83C14C2F818
:100450006815D3F84014C2F86C15D3F83411D3F8EA
:100460004434C2F87035052942D84D4B5B5C1BB152
:100470004C4B4D4AC3F88C264C4B5B5C73B14FF030
:1004800080534B49D3F83021FB20C1F81805082AC6
:10049000D3F834117FF473AF052929D8454B5B5C41
:1004A000BBB14FF080524FF08040D2F85832D0F8B4
:1004B000E41ED2F8304121F00F0103F00F030B438B
:1004C000C0F8E43E082CD2F834117FF458AF052967
:1004D0000ED8394B5B5C5BB14FF08053374AD3F891
:1004E00030314FF40071082BC2F840167FF447AF4B
:1004F0004FF08043D3F80024D2077FF540AF6FF070
:100500000102C3F800243AE7D3F83431052B08D9A7
:100510004FF010224FF08043D2F80822C3F858253C
:100520003FE7274AD35C002B3FF43BAFF0E7254A77
:100530000123C2F80435D2F80034002BFBD04FF071
:10054000102312211F4AC3F80012D2F80034002BE6
:10055000FBD04FF0102312211A4AC3F80412D2F82C
:100560000034002BFBD000231649C2F80435D1F823
:100570000034002BFBD0BFF34F8F0549124BCA68E4
:1005800002F4E0621343CB60BFF34F8F00BFFDE77F
:1005900000ED00E0000000200090D00300C000400B
:1005A00080060000005000404881030080060000E3
:1005B00000F000408006000080060000009002402D
:1005C0007806000000E001400400FA0508B5074B7A
:1005D000044613B10021AFF30080054B1868836A0D
:1005E00003B19847204600F031F800BF000000003A
:1005F0008806000070B50D4D0D4C641BA41000263C
:10060000A64209D10B4D0C4C00F022F8641BA4103B
:100610000026A64205D170BD55F8043B9847013627
:10062000EEE755F8043B98470136F2E764000020F6
:10063000640000206400002068000020024403469B
:10064000934200D1704703F8011BF9E7FEE700BFB2
:10065000F8B500BFF8BC08BC9E467047F8B500BFAF
:10066000F8BC08BC9E467047000000000000000077
:100670000338FDD8704700000000000001010000B1
:100680000100000000000000040000200000000045
:08069000B0FBFF7F0100000038
:100698000090D003000000000000000000000000EF
:1006A8000000000000000000000000000000000042
:1006B8000000000000000000000000000000000032
:1006C8000000000000000000000000000000000022
:1006D8000000000000000000000000000000000012
:1006E8000000000000000000000000000000000002
:0C06F800000000002502000001020000CC
:04000003000002BD3A
:00000001FF
